{
  "_format": "hh-sol-artifact-1",
  "contractName": "WalletInsurance",
  "sourceName": "contracts/WalletInsurance.sol",
  "abi": [
    {
      "inputs": [
        {
          "internalType": "uint256",
          "name": "_insuredAmount",
          "type": "uint256"
        }
      ],
      "stateMutability": "nonpayable",
      "type": "constructor"
    },
    {
      "anonymous": false,
      "inputs": [
        {
          "indexed": true,
          "internalType": "address",
          "name": "claimant",
          "type": "address"
        },
        {
          "indexed": false,
          "internalType": "uint256",
          "name": "amount",
          "type": "uint256"
        }
      ],
      "name": "Claimed",
      "type": "event"
    },
    {
      "anonymous": false,
      "inputs": [
        {
          "indexed": true,
          "internalType": "address",
          "name": "payer",
          "type": "address"
        },
        {
          "indexed": false,
          "internalType": "uint256",
          "name": "amount",
          "type": "uint256"
        }
      ],
      "name": "PaymentReceived",
      "type": "event"
    },
    {
      "inputs": [
        {
          "internalType": "address",
          "name": "",
          "type": "address"
        }
      ],
      "name": "balance",
      "outputs": [
        {
          "internalType": "uint256",
          "name": "",
          "type": "uint256"
        }
      ],
      "stateMutability": "view",
      "type": "function"
    },
    {
      "inputs": [],
      "name": "claimInsurance",
      "outputs": [],
      "stateMutability": "payable",
      "type": "function"
    },
    {
      "inputs": [],
      "name": "getBalance",
      "outputs": [
        {
          "internalType": "uint256",
          "name": "",
          "type": "uint256"
        }
      ],
      "stateMutability": "view",
      "type": "function"
    },
    {
      "inputs": [],
      "name": "getTokenBalance",
      "outputs": [
        {
          "internalType": "uint256",
          "name": "",
          "type": "uint256"
        }
      ],
      "stateMutability": "view",
      "type": "function"
    },
    {
      "inputs": [],
      "name": "insuranceDuration",
      "outputs": [
        {
          "internalType": "uint256",
          "name": "",
          "type": "uint256"
        }
      ],
      "stateMutability": "view",
      "type": "function"
    },
    {
      "inputs": [],
      "name": "insured",
      "outputs": [
        {
          "internalType": "bool",
          "name": "",
          "type": "bool"
        }
      ],
      "stateMutability": "view",
      "type": "function"
    },
    {
      "inputs": [],
      "name": "insuredAmount",
      "outputs": [
        {
          "internalType": "uint256",
          "name": "",
          "type": "uint256"
        }
      ],
      "stateMutability": "view",
      "type": "function"
    },
    {
      "inputs": [],
      "name": "owner",
      "outputs": [
        {
          "internalType": "address",
          "name": "",
          "type": "address"
        }
      ],
      "stateMutability": "view",
      "type": "function"
    },
    {
      "inputs": [],
      "name": "payInsurance",
      "outputs": [],
      "stateMutability": "payable",
      "type": "function"
    },
    {
      "inputs": [],
      "name": "token",
      "outputs": [
        {
          "internalType": "uint256",
          "name": "",
          "type": "uint256"
        }
      ],
      "stateMutability": "view",
      "type": "function"
    },
    {
      "inputs": [
        {
          "internalType": "address",
          "name": "",
          "type": "address"
        }
      ],
      "name": "tokenBalance",
      "outputs": [
        {
          "internalType": "uint256",
          "name": "",
          "type": "uint256"
        }
      ],
      "stateMutability": "view",
      "type": "function"
    }
  ],
  "bytecode": "0x608060405234801561001057600080fd5b506040516200115b3803806200115b833981810160405281019061003491906100bc565b336000806101000a81548173ffffffffffffffffffffffffffffffffffffffff021916908373ffffffffffffffffffffffffffffffffffffffff16021790555080600181905550506100e9565b600080fd5b6000819050919050565b61009981610086565b81146100a457600080fd5b50565b6000815190506100b681610090565b92915050565b6000602082840312156100d2576100d1610081565b5b60006100e0848285016100a7565b91505092915050565b61106280620000f96000396000f3fe60806040526004361061009c5760003560e01c8063a75ac60811610064578063a75ac60814610157578063db342e1014610161578063e3d670d71461018c578063eebb1363146101c9578063eedc966a146101f4578063fc0c546a146102315761009c565b806312065fe0146100a1578063502b82c9146100cc57806368a74d54146100f757806382b2e257146101015780638da5cb5b1461012c575b600080fd5b3480156100ad57600080fd5b506100b661025c565b6040516100c3919061095b565b60405180910390f35b3480156100d857600080fd5b506100e16102a3565b6040516100ee919061095b565b60405180910390f35b6100ff6102a9565b005b34801561010d57600080fd5b50610116610512565b604051610123919061095b565b60405180910390f35b34801561013857600080fd5b50610141610559565b60405161014e91906109b7565b60405180910390f35b61015f61057d565b005b34801561016d57600080fd5b506101766108f3565b604051610183919061095b565b60405180910390f35b34801561019857600080fd5b506101b360048036038101906101ae9190610a03565b6108f9565b6040516101c0919061095b565b60405180910390f35b3480156101d557600080fd5b506101de610911565b6040516101eb9190610a4b565b60405180910390f35b34801561020057600080fd5b5061021b60048036038101906102169190610a03565b610924565b604051610228919061095b565b60405180910390f35b34801561023d57600080fd5b5061024661093c565b604051610253919061095b565b60405180910390f35b6000600560003373ffffffffffffffffffffffffffffffffffffffff1673ffffffffffffffffffffffffffffffffffffffff16815260200190815260200160002054905090565b60045481565b600360009054906101000a900460ff16156102f9576040517f08c379a00000000000000000000000000000000000000000000000000000000081526004016102f090610ac3565b60405180910390fd5b60015434101561033e576040517f08c379a000000000000000000000000000000000000000000000000000000000815260040161033590610b55565b60405180910390fd5b6004544211610382576040517f08c379a000000000000000000000000000000000000000000000000000000000815260040161037990610be7565b60405180910390fd5b34600560008060009054906101000a900473ffffffffffffffffffffffffffffffffffffffff1673ffffffffffffffffffffffffffffffffffffffff1673ffffffffffffffffffffffffffffffffffffffff16815260200190815260200160002060008282546103f29190610c36565b92505081905550670de0b6b3a7640000341015610452576276a700426104189190610c36565b600481905550633b9aca006004546004346104339190610c6a565b61043d9190610c6a565b6104479190610cdb565b6002819055506104a7565b670de0b6b3a764000034106104a65762ed4e00426104709190610c36565b6004819055506305f5e10060045460093461048b9190610c6a565b6104959190610c6a565b61049f9190610cdb565b6002819055505b5b6001600360006101000a81548160ff0219169083151502179055503373ffffffffffffffffffffffffffffffffffffffff167f6ef95f06320e7a25a04a175ca677b7052bdd97131872c2192525a629f51be77034604051610508919061095b565b60405180910390a2565b6000600660003373ffffffffffffffffffffffffffffffffffffffff1673ffffffffffffffffffffffffffffffffffffffff16815260200190815260200160002054905090565b60008054906101000a900473ffffffffffffffffffffffffffffffffffffffff1681565b60008054906101000a900473ffffffffffffffffffffffffffffffffffffffff1673ffffffffffffffffffffffffffffffffffffffff163373ffffffffffffffffffffffffffffffffffffffff161461060b576040517f08c379a000000000000000000000000000000000000000000000000000000000815260040161060290610d7e565b60405180910390fd5b600360009054906101000a900460ff1661065a576040517f08c379a000000000000000000000000000000000000000000000000000000000815260040161065190610e10565b60405180910390fd5b600454421161069e576040517f08c379a000000000000000000000000000000000000000000000000000000000815260040161069590610ea2565b60405180910390fd5b6000600560008060009054906101000a900473ffffffffffffffffffffffffffffffffffffffff1673ffffffffffffffffffffffffffffffffffffffff1673ffffffffffffffffffffffffffffffffffffffff1681526020019081526020016000205403610741576040517f08c379a000000000000000000000000000000000000000000000000000000000815260040161073890610f34565b60405180910390fd5b6000600360006101000a81548160ff021916908315150217905550600254600660008060009054906101000a900473ffffffffffffffffffffffffffffffffffffffff1673ffffffffffffffffffffffffffffffffffffffff1673ffffffffffffffffffffffffffffffffffffffff16815260200190815260200160002060008282546107ce9190610c36565b9250508190555060008060009054906101000a900473ffffffffffffffffffffffffffffffffffffffff1673ffffffffffffffffffffffffffffffffffffffff164760405161081c90610f85565b60006040518083038185875af1925050503d8060008114610859576040519150601f19603f3d011682016040523d82523d6000602084013e61085e565b606091505b50509050806108a2576040517f08c379a00000000000000000000000000000000000000000000000000000000081526004016108999061100c565b60405180910390fd5b3373ffffffffffffffffffffffffffffffffffffffff167fd8138f8a3f377c5259ca548e70e4c2de94f129f5a11036a15b69513cba2b426a476040516108e8919061095b565b60405180910390a250565b60015481565b60056020528060005260406000206000915090505481565b600360009054906101000a900460ff1681565b60066020528060005260406000206000915090505481565b60025481565b6000819050919050565b61095581610942565b82525050565b6000602082019050610970600083018461094c565b92915050565b600073ffffffffffffffffffffffffffffffffffffffff82169050919050565b60006109a182610976565b9050919050565b6109b181610996565b82525050565b60006020820190506109cc60008301846109a8565b92915050565b600080fd5b6109e081610996565b81146109eb57600080fd5b50565b6000813590506109fd816109d7565b92915050565b600060208284031215610a1957610a186109d2565b5b6000610a27848285016109ee565b91505092915050565b60008115159050919050565b610a4581610a30565b82525050565b6000602082019050610a606000830184610a3c565b92915050565b600082825260208201905092915050565b7f596f752061726520616c726561647920696e73757265642e0000000000000000600082015250565b6000610aad601883610a66565b9150610ab882610a77565b602082019050919050565b60006020820190508181036000830152610adc81610aa0565b9050919050565b7f54686520616d6f756e742070726f7669646564206973206e6f742076616c696460008201527f2e00000000000000000000000000000000000000000000000000000000000000602082015250565b6000610b3f602183610a66565b9150610b4a82610ae3565b604082019050919050565b60006020820190508181036000830152610b6e81610b32565b9050919050565b7f596f752061726520756e61626c6520746f206d616b652061207061796d656e7460008201527f20617420746869732074696d652e000000000000000000000000000000000000602082015250565b6000610bd1602e83610a66565b9150610bdc82610b75565b604082019050919050565b60006020820190508181036000830152610c0081610bc4565b9050919050565b7f4e487b7100000000000000000000000000000000000000000000000000000000600052601160045260246000fd5b6000610c4182610942565b9150610c4c83610942565b9250828201905080821115610c6457610c63610c07565b5b92915050565b6000610c7582610942565b9150610c8083610942565b9250828202610c8e81610942565b91508282048414831517610ca557610ca4610c07565b5b5092915050565b7f4e487b7100000000000000000000000000000000000000000000000000000000600052601260045260246000fd5b6000610ce682610942565b9150610cf183610942565b925082610d0157610d00610cac565b5b828204905092915050565b7f5468697320616374696f6e2063616e206f6e6c7920626520706572666f726d6560008201527f6420627920746865206f776e6572206f662074686520636f6e74726163742e00602082015250565b6000610d68603f83610a66565b9150610d7382610d0c565b604082019050919050565b60006020820190508181036000830152610d9781610d5b565b9050919050565b7f596f7520646f206e6f74206861766520696e737572616e636520636f7665726160008201527f67652e0000000000000000000000000000000000000000000000000000000000602082015250565b6000610dfa602383610a66565b9150610e0582610d9e565b604082019050919050565b60006020820190508181036000830152610e2981610ded565b9050919050565b7f596f757220696e737572616e6365206973207374696c6c2076616c696420616e60008201527f6420686173206e6f7420657870697265642e0000000000000000000000000000602082015250565b6000610e8c603283610a66565b9150610e9782610e30565b604082019050919050565b60006020820190508181036000830152610ebb81610e7f565b9050919050565b7f54686520696e737572616e6365207061796d656e7420686173206e6f7420626560008201527f656e206d6164652e000000000000000000000000000000000000000000000000602082015250565b6000610f1e602883610a66565b9150610f2982610ec2565b604082019050919050565b60006020820190508181036000830152610f4d81610f11565b9050919050565b600081905092915050565b50565b6000610f6f600083610f54565b9150610f7a82610f5f565b600082019050919050565b6000610f9082610f62565b9150819050919050565b7f54686520617474656d707420746f2073656e642045746865722068617320666160008201527f696c65642e000000000000000000000000000000000000000000000000000000602082015250565b6000610ff6602583610a66565b915061100182610f9a565b604082019050919050565b6000602082019050818103600083015261102581610fe9565b905091905056fea264697066735822122064e380cdf81e507633c1ab97c9ff44b06a9524567c9506497356174a077ddd9664736f6c63430008130033",
  "linkReferences": {},
  "deployedLinkReferences": {}
}