{
  "_format": "hh-sol-artifact-1",
  "contractName": "CollateralProtection",
  "sourceName": "contracts/CollateralProtection.sol",
  "abi": [
    {
      "inputs": [],
      "stateMutability": "nonpayable",
      "type": "constructor"
    },
    {
      "anonymous": false,
      "inputs": [
        {
          "indexed": true,
          "internalType": "address",
          "name": "borrower",
          "type": "address"
        },
        {
          "indexed": false,
          "internalType": "uint256",
          "name": "collateralAmount",
          "type": "uint256"
        }
      ],
      "name": "CollateralReturned",
      "type": "event"
    },
    {
      "anonymous": false,
      "inputs": [
        {
          "indexed": true,
          "internalType": "address",
          "name": "borrower",
          "type": "address"
        },
        {
          "indexed": false,
          "internalType": "uint256",
          "name": "loanAmount",
          "type": "uint256"
        },
        {
          "indexed": false,
          "internalType": "uint256",
          "name": "collateralAmount",
          "type": "uint256"
        }
      ],
      "name": "LoanCreated",
      "type": "event"
    },
    {
      "inputs": [],
      "name": "collateralThreshold",
      "outputs": [
        {
          "internalType": "uint256",
          "name": "",
          "type": "uint256"
        }
      ],
      "stateMutability": "view",
      "type": "function"
    },
    {
      "inputs": [],
      "name": "collectLoan",
      "outputs": [],
      "stateMutability": "payable",
      "type": "function"
    },
    {
      "inputs": [
        {
          "internalType": "uint256",
          "name": "loanAmount",
          "type": "uint256"
        },
        {
          "internalType": "uint256",
          "name": "collateralAmount",
          "type": "uint256"
        }
      ],
      "name": "createLoan",
      "outputs": [],
      "stateMutability": "nonpayable",
      "type": "function"
    },
    {
      "inputs": [
        {
          "internalType": "address",
          "name": "",
          "type": "address"
        }
      ],
      "name": "loan",
      "outputs": [
        {
          "internalType": "uint256",
          "name": "loanAmount",
          "type": "uint256"
        },
        {
          "internalType": "uint256",
          "name": "collateralThreshold",
          "type": "uint256"
        },
        {
          "internalType": "uint256",
          "name": "loanDuration",
          "type": "uint256"
        },
        {
          "internalType": "uint256",
          "name": "loanOwed",
          "type": "uint256"
        },
        {
          "internalType": "uint256",
          "name": "wallet",
          "type": "uint256"
        },
        {
          "internalType": "bool",
          "name": "paid",
          "type": "bool"
        }
      ],
      "stateMutability": "view",
      "type": "function"
    },
    {
      "inputs": [
        {
          "internalType": "address",
          "name": "",
          "type": "address"
        }
      ],
      "name": "loanCollateral",
      "outputs": [
        {
          "internalType": "uint256",
          "name": "",
          "type": "uint256"
        }
      ],
      "stateMutability": "view",
      "type": "function"
    },
    {
      "inputs": [],
      "name": "owner",
      "outputs": [
        {
          "internalType": "address",
          "name": "",
          "type": "address"
        }
      ],
      "stateMutability": "view",
      "type": "function"
    },
    {
      "inputs": [],
      "name": "payLoan",
      "outputs": [],
      "stateMutability": "payable",
      "type": "function"
    },
    {
      "stateMutability": "payable",
      "type": "receive"
    }
  ],
  "bytecode": "0x608060405234801561001057600080fd5b50326000806101000a81548173ffffffffffffffffffffffffffffffffffffffff021916908373ffffffffffffffffffffffffffffffffffffffff160217905550611933806100606000396000f3fe6080604052600436106100745760003560e01c806398cd90b51161004e57806398cd90b5146100e0578063b0857bb414610109578063b5e2ebc614610113578063e6a641e9146101555761007b565b8063472eb03d146100805780638da5cb5b1461008a5780638e8cfbde146100b55761007b565b3661007b57005b600080fd5b610088610192565b005b34801561009657600080fd5b5061009f610505565b6040516100ac9190610f69565b60405180910390f35b3480156100c157600080fd5b506100ca610529565b6040516100d79190610f9d565b60405180910390f35b3480156100ec57600080fd5b5061010760048036038101906101029190610fe9565b61052f565b005b6101116109b4565b005b34801561011f57600080fd5b5061013a60048036038101906101359190611055565b610ec7565b60405161014c9695949392919061109d565b60405180910390f35b34801561016157600080fd5b5061017c60048036038101906101779190611055565b610f10565b6040516101899190610f9d565b60405180910390f35b6000600360008060009054906101000a900473ffffffffffffffffffffffffffffffffffffffff1673ffffffffffffffffffffffffffffffffffffffff1673ffffffffffffffffffffffffffffffffffffffff1681526020019081526020016000206003015411610238576040517f08c379a000000000000000000000000000000000000000000000000000000000815260040161022f90611181565b60405180910390fd5b600360008060009054906101000a900473ffffffffffffffffffffffffffffffffffffffff1673ffffffffffffffffffffffffffffffffffffffff1673ffffffffffffffffffffffffffffffffffffffff168152602001908152602001600020600301543410156102de576040517f08c379a00000000000000000000000000000000000000000000000000000000081526004016102d590611213565b60405180910390fd5b600360008060009054906101000a900473ffffffffffffffffffffffffffffffffffffffff1673ffffffffffffffffffffffffffffffffffffffff1673ffffffffffffffffffffffffffffffffffffffff16815260200190815260200160002060050160009054906101000a900460ff161561038f576040517f08c379a0000000000000000000000000000000000000000000000000000000008152600401610386906112a5565b60405180910390fd5b3073ffffffffffffffffffffffffffffffffffffffff166108fc349081150290604051600060405180830381858888f193505050501580156103d5573d6000803e3d6000fd5b5034600360008060009054906101000a900473ffffffffffffffffffffffffffffffffffffffff1673ffffffffffffffffffffffffffffffffffffffff1673ffffffffffffffffffffffffffffffffffffffff168152602001908152602001600020600301600082825461044991906112f4565b925050819055506000600260003373ffffffffffffffffffffffffffffffffffffffff1673ffffffffffffffffffffffffffffffffffffffff1681526020019081526020016000208190555060008054906101000a900473ffffffffffffffffffffffffffffffffffffffff1673ffffffffffffffffffffffffffffffffffffffff167f3db642b80902afb8ef23a2aeab4800b4b3717feb180705cf0a1c273ccc591c97346040516104fb9190610f9d565b60405180910390a2565b60008054906101000a900473ffffffffffffffffffffffffffffffffffffffff1681565b60015481565b60008054906101000a900473ffffffffffffffffffffffffffffffffffffffff1673ffffffffffffffffffffffffffffffffffffffff163373ffffffffffffffffffffffffffffffffffffffff16146105bd576040517f08c379a00000000000000000000000000000000000000000000000000000000081526004016105b49061139a565b60405180910390fd5b60008211610600576040517f08c379a00000000000000000000000000000000000000000000000000000000081526004016105f79061142c565b60405180910390fd5b60008111610643576040517f08c379a000000000000000000000000000000000000000000000000000000000815260040161063a906114be565b60405180910390fd5b6000600360003373ffffffffffffffffffffffffffffffffffffffff1673ffffffffffffffffffffffffffffffffffffffff16815260200190815260200160002060000154146106c8576040517f08c379a00000000000000000000000000000000000000000000000000000000081526004016106bf90611550565b60405180910390fd5b670de0b6b3a76400008211156107f4576040518060c0016040528083815260200182815260200162ed4e00426106fe9190611570565b8152602001606460148561071291906115a4565b61071c9190611615565b846107279190611570565b81526020016000815260200160001515815250600360008060009054906101000a900473ffffffffffffffffffffffffffffffffffffffff1673ffffffffffffffffffffffffffffffffffffffff1673ffffffffffffffffffffffffffffffffffffffff168152602001908152602001600020600082015181600001556020820151816001015560408201518160020155606082015181600301556080820151816004015560a08201518160050160006101000a81548160ff02191690831515021790555090505061091c565b670de0b6b3a7640000821161091b576040518060c001604052808381526020018281526020016276a700426108299190611570565b81526020016064600a8561083d91906115a4565b6108479190611615565b846108529190611570565b81526020016000815260200160001515815250600360008060009054906101000a900473ffffffffffffffffffffffffffffffffffffffff1673ffffffffffffffffffffffffffffffffffffffff1673ffffffffffffffffffffffffffffffffffffffff168152602001908152602001600020600082015181600001556020820151816001015560408201518160020155606082015181600301556080820151816004015560a08201518160050160006101000a81548160ff0219169083151502179055509050505b5b80600260003373ffffffffffffffffffffffffffffffffffffffff1673ffffffffffffffffffffffffffffffffffffffff168152602001908152602001600020819055503373ffffffffffffffffffffffffffffffffffffffff167f58d170de3a12438e22d81380f353b2fcac86f0a708a1374deaa5c6322a95992f83836040516109a8929190611646565b60405180910390a25050565b6000600260008060009054906101000a900473ffffffffffffffffffffffffffffffffffffffff1673ffffffffffffffffffffffffffffffffffffffff1673ffffffffffffffffffffffffffffffffffffffff1681526020019081526020016000205403610a57576040517f08c379a0000000000000000000000000000000000000000000000000000000008152600401610a4e906116e1565b60405180910390fd5b6000600360008060009054906101000a900473ffffffffffffffffffffffffffffffffffffffff1673ffffffffffffffffffffffffffffffffffffffff1673ffffffffffffffffffffffffffffffffffffffff1681526020019081526020016000206004015414610afd576040517f08c379a0000000000000000000000000000000000000000000000000000000008152600401610af490611773565b60405180910390fd5b600360008060009054906101000a900473ffffffffffffffffffffffffffffffffffffffff1673ffffffffffffffffffffffffffffffffffffffff1673ffffffffffffffffffffffffffffffffffffffff16815260200190815260200160002060000154600360008060009054906101000a900473ffffffffffffffffffffffffffffffffffffffff1673ffffffffffffffffffffffffffffffffffffffff1673ffffffffffffffffffffffffffffffffffffffff168152602001908152602001600020600101541015610c06576040517f08c379a0000000000000000000000000000000000000000000000000000000008152600401610bfd90611805565b60405180910390fd5b600360008060009054906101000a900473ffffffffffffffffffffffffffffffffffffffff1673ffffffffffffffffffffffffffffffffffffffff1673ffffffffffffffffffffffffffffffffffffffff16815260200190815260200160002060050160009054906101000a900460ff1615610cb7576040517f08c379a0000000000000000000000000000000000000000000000000000000008152600401610cae906112a5565b60405180910390fd5b60008060009054906101000a900473ffffffffffffffffffffffffffffffffffffffff1673ffffffffffffffffffffffffffffffffffffffff16600360008060009054906101000a900473ffffffffffffffffffffffffffffffffffffffff1673ffffffffffffffffffffffffffffffffffffffff1673ffffffffffffffffffffffffffffffffffffffff16815260200190815260200160002060000154604051610d6190611856565b60006040518083038185875af1925050503d8060008114610d9e576040519150601f19603f3d011682016040523d82523d6000602084013e610da3565b606091505b5050905080610de7576040517f08c379a0000000000000000000000000000000000000000000000000000000008152600401610dde906118dd565b60405180910390fd5b600360008060009054906101000a900473ffffffffffffffffffffffffffffffffffffffff1673ffffffffffffffffffffffffffffffffffffffff1673ffffffffffffffffffffffffffffffffffffffff16815260200190815260200160002060000154600360008060009054906101000a900473ffffffffffffffffffffffffffffffffffffffff1673ffffffffffffffffffffffffffffffffffffffff1673ffffffffffffffffffffffffffffffffffffffff1681526020019081526020016000206004016000828254610ebd9190611570565b9250508190555050565b60036020528060005260406000206000915090508060000154908060010154908060020154908060030154908060040154908060050160009054906101000a900460ff16905086565b60026020528060005260406000206000915090505481565b600073ffffffffffffffffffffffffffffffffffffffff82169050919050565b6000610f5382610f28565b9050919050565b610f6381610f48565b82525050565b6000602082019050610f7e6000830184610f5a565b92915050565b6000819050919050565b610f9781610f84565b82525050565b6000602082019050610fb26000830184610f8e565b92915050565b600080fd5b610fc681610f84565b8114610fd157600080fd5b50565b600081359050610fe381610fbd565b92915050565b6000806040838503121561100057610fff610fb8565b5b600061100e85828601610fd4565b925050602061101f85828601610fd4565b9150509250929050565b61103281610f48565b811461103d57600080fd5b50565b60008135905061104f81611029565b92915050565b60006020828403121561106b5761106a610fb8565b5b600061107984828501611040565b91505092915050565b60008115159050919050565b61109781611082565b82525050565b600060c0820190506110b26000830189610f8e565b6110bf6020830188610f8e565b6110cc6040830187610f8e565b6110d96060830186610f8e565b6110e66080830185610f8e565b6110f360a083018461108e565b979650505050505050565b600082825260208201905092915050565b7f5468657265206973206e6f206c6f616e20617661696c61626c6520746f20626560008201527f20706169642e0000000000000000000000000000000000000000000000000000602082015250565b600061116b6026836110fe565b91506111768261110f565b604082019050919050565b6000602082019050818103600083015261119a8161115e565b9050919050565b7f5468652070726f766964656420616d6f756e74206973206e6f7420737566666960008201527f6369656e742e0000000000000000000000000000000000000000000000000000602082015250565b60006111fd6026836110fe565b9150611208826111a1565b604082019050919050565b6000602082019050818103600083015261122c816111f0565b9050919050565b7f546865206c6f616e20686173206e6f74206265656e2070616964206f7574207960008201527f65742e0000000000000000000000000000000000000000000000000000000000602082015250565b600061128f6023836110fe565b915061129a82611233565b604082019050919050565b600060208201905081810360008301526112be81611282565b9050919050565b7f4e487b7100000000000000000000000000000000000000000000000000000000600052601160045260246000fd5b60006112ff82610f84565b915061130a83610f84565b9250828203905081811115611322576113216112c5565b5b92915050565b7f5468697320616374696f6e2063616e206f6e6c7920626520706572666f726d6560008201527f6420627920746865206f776e6572206f662074686520636f6e74726163742e00602082015250565b6000611384603f836110fe565b915061138f82611328565b604082019050919050565b600060208201905081810360008301526113b381611377565b9050919050565b7f546865206c6f616e20616d6f756e742073686f756c642062652068696768657260008201527f207468616e207a65726f2e000000000000000000000000000000000000000000602082015250565b6000611416602b836110fe565b9150611421826113ba565b604082019050919050565b6000602082019050818103600083015261144581611409565b9050919050565b7f54686520636f6c6c61746572616c20616d6f756e74206e6565647320746f206560008201527f7863656564207a65726f2e000000000000000000000000000000000000000000602082015250565b60006114a8602b836110fe565b91506114b38261144c565b604082019050919050565b600060208201905081810360008301526114d78161149b565b9050919050565b7f41206c6f616e2077697468207468652073616d652064657461696c7320616c7260008201527f65616479206578697374732e0000000000000000000000000000000000000000602082015250565b600061153a602c836110fe565b9150611545826114de565b604082019050919050565b600060208201905081810360008301526115698161152d565b9050919050565b600061157b82610f84565b915061158683610f84565b925082820190508082111561159e5761159d6112c5565b5b92915050565b60006115af82610f84565b91506115ba83610f84565b92508282026115c881610f84565b915082820484148315176115df576115de6112c5565b5b5092915050565b7f4e487b7100000000000000000000000000000000000000000000000000000000600052601260045260246000fd5b600061162082610f84565b915061162b83610f84565b92508261163b5761163a6115e6565b5b828204905092915050565b600060408201905061165b6000830185610f8e565b6116686020830184610f8e565b9392505050565b7f5468657265206973206e6f20636f6c6c61746572616c206173736f636961746560008201527f64207769746820796f7572206163636f756e742e000000000000000000000000602082015250565b60006116cb6034836110fe565b91506116d68261166f565b604082019050919050565b600060208201905081810360008301526116fa816116be565b9050919050565b7f5468652062616c616e636520696e20796f75722077616c6c6574206d7573742060008201527f6265207a65726f2e000000000000000000000000000000000000000000000000602082015250565b600061175d6028836110fe565b915061176882611701565b604082019050919050565b6000602082019050818103600083015261178c81611750565b9050919050565b7f54686520616d6f756e74206f6620636f6c6c61746572616c20796f752068617660008201527f6520697320696e73756666696369656e742e0000000000000000000000000000602082015250565b60006117ef6032836110fe565b91506117fa82611793565b604082019050919050565b6000602082019050818103600083015261181e816117e2565b9050919050565b600081905092915050565b50565b6000611840600083611825565b915061184b82611830565b600082019050919050565b600061186182611833565b9150819050919050565b7f54686520617474656d707420746f2073656e642045746865722068617320666160008201527f696c65642e000000000000000000000000000000000000000000000000000000602082015250565b60006118c76025836110fe565b91506118d28261186b565b604082019050919050565b600060208201905081810360008301526118f6816118ba565b905091905056fea26469706673582212204c669a392621b74e21f4eb8627c91c9d8aea08a2d106ac7fe6dd559fd8c6b64064736f6c63430008130033",
  "linkReferences": {},
  "deployedLinkReferences": {}
}