{
  "_format": "hh-sol-artifact-1",
  "contractName": "InsuranceFactory",
  "sourceName": "contracts/Factory.sol",
  "abi": [
    {
      "anonymous": false,
      "inputs": [
        {
          "indexed": true,
          "internalType": "address",
          "name": "user",
          "type": "address"
        },
        {
          "indexed": false,
          "internalType": "address",
          "name": "collateralProtection",
          "type": "address"
        }
      ],
      "name": "CollateralProtectionCreated",
      "type": "event"
    },
    {
      "anonymous": false,
      "inputs": [
        {
          "indexed": true,
          "internalType": "address",
          "name": "user",
          "type": "address"
        },
        {
          "indexed": false,
          "internalType": "address",
          "name": "walletInsurance",
          "type": "address"
        }
      ],
      "name": "WalletInsuranceCreated",
      "type": "event"
    },
    {
      "inputs": [],
      "name": "createCollateralProtection",
      "outputs": [],
      "stateMutability": "nonpayable",
      "type": "function"
    },
    {
      "inputs": [
        {
          "internalType": "uint256",
          "name": "_insuredAmount",
          "type": "uint256"
        }
      ],
      "name": "createWalletInsurance",
      "outputs": [],
      "stateMutability": "nonpayable",
      "type": "function"
    },
    {
      "inputs": [],
      "name": "getUserInsuranceContracts",
      "outputs": [
        {
          "internalType": "address",
          "name": "",
          "type": "address"
        }
      ],
      "stateMutability": "view",
      "type": "function"
    },
    {
      "inputs": [],
      "name": "getUserWalletContract",
      "outputs": [
        {
          "internalType": "address",
          "name": "",
          "type": "address"
        }
      ],
      "stateMutability": "view",
      "type": "function"
    }
  ],
  "bytecode": "0x608060405234801561001057600080fd5b506131ed806100206000396000f3fe608060405234801561001057600080fd5b506004361061004c5760003560e01c806330c70fae1461005157806336c086721461006f5780635ca605771461008d5780638ed49d22146100a9575b600080fd5b6100596100b3565b6040516100669190610579565b60405180910390f35b610077610119565b6040516100849190610579565b60405180910390f35b6100a760048036038101906100a291906105cf565b610180565b005b6100b1610356565b005b60008060003373ffffffffffffffffffffffffffffffffffffffff1673ffffffffffffffffffffffffffffffffffffffff16815260200190815260200160002060009054906101000a900473ffffffffffffffffffffffffffffffffffffffff16905090565b6000600160003373ffffffffffffffffffffffffffffffffffffffff1673ffffffffffffffffffffffffffffffffffffffff16815260200190815260200160002060009054906101000a900473ffffffffffffffffffffffffffffffffffffffff16905090565b600073ffffffffffffffffffffffffffffffffffffffff16600160003373ffffffffffffffffffffffffffffffffffffffff1673ffffffffffffffffffffffffffffffffffffffff16815260200190815260200160002060009054906101000a900473ffffffffffffffffffffffffffffffffffffffff1673ffffffffffffffffffffffffffffffffffffffff161461024e576040517f08c379a00000000000000000000000000000000000000000000000000000000081526004016102459061067f565b60405180910390fd5b60008160405161025d9061051e565b61026791906106ae565b604051809103906000f080158015610283573d6000803e3d6000fd5b50905080600160003373ffffffffffffffffffffffffffffffffffffffff1673ffffffffffffffffffffffffffffffffffffffff16815260200190815260200160002060006101000a81548173ffffffffffffffffffffffffffffffffffffffff021916908373ffffffffffffffffffffffffffffffffffffffff1602179055503373ffffffffffffffffffffffffffffffffffffffff167f1e0b8eaf695896b206f251c69ce62078a74320d12287968695e36e4bf8b41ee48260405161034a9190610579565b60405180910390a25050565b600073ffffffffffffffffffffffffffffffffffffffff166000803373ffffffffffffffffffffffffffffffffffffffff1673ffffffffffffffffffffffffffffffffffffffff16815260200190815260200160002060009054906101000a900473ffffffffffffffffffffffffffffffffffffffff1673ffffffffffffffffffffffffffffffffffffffff1614610423576040517f08c379a000000000000000000000000000000000000000000000000000000000815260040161041a9061067f565b60405180910390fd5b60006040516104319061052b565b604051809103906000f08015801561044d573d6000803e3d6000fd5b509050806000803373ffffffffffffffffffffffffffffffffffffffff1673ffffffffffffffffffffffffffffffffffffffff16815260200190815260200160002060006101000a81548173ffffffffffffffffffffffffffffffffffffffff021916908373ffffffffffffffffffffffffffffffffffffffff1602179055503373ffffffffffffffffffffffffffffffffffffffff167fb648192506b036eaf83536dd4500966cb307b05d7255a009151ecf17e01316bd826040516105139190610579565b60405180910390a250565b61115b806106ca83390190565b6119938061182583390190565b600073ffffffffffffffffffffffffffffffffffffffff82169050919050565b600061056382610538565b9050919050565b61057381610558565b82525050565b600060208201905061058e600083018461056a565b92915050565b600080fd5b6000819050919050565b6105ac81610599565b81146105b757600080fd5b50565b6000813590506105c9816105a3565b92915050565b6000602082840312156105e5576105e4610594565b5b60006105f3848285016105ba565b91505092915050565b600082825260208201905092915050565b7f596f7520616c7265616479206861766520616e206578697374696e6720696e7360008201527f7572616e636520636f6e74726163742e00000000000000000000000000000000602082015250565b60006106696030836105fc565b91506106748261060d565b604082019050919050565b600060208201905081810360008301526106988161065c565b9050919050565b6106a881610599565b82525050565b60006020820190506106c3600083018461069f565b9291505056fe608060405234801561001057600080fd5b506040516200115b3803806200115b833981810160405281019061003491906100bc565b336000806101000a81548173ffffffffffffffffffffffffffffffffffffffff021916908373ffffffffffffffffffffffffffffffffffffffff16021790555080600181905550506100e9565b600080fd5b6000819050919050565b61009981610086565b81146100a457600080fd5b50565b6000815190506100b681610090565b92915050565b6000602082840312156100d2576100d1610081565b5b60006100e0848285016100a7565b91505092915050565b61106280620000f96000396000f3fe60806040526004361061009c5760003560e01c8063a75ac60811610064578063a75ac60814610157578063db342e1014610161578063e3d670d71461018c578063eebb1363146101c9578063eedc966a146101f4578063fc0c546a146102315761009c565b806312065fe0146100a1578063502b82c9146100cc57806368a74d54146100f757806382b2e257146101015780638da5cb5b1461012c575b600080fd5b3480156100ad57600080fd5b506100b661025c565b6040516100c3919061095b565b60405180910390f35b3480156100d857600080fd5b506100e16102a3565b6040516100ee919061095b565b60405180910390f35b6100ff6102a9565b005b34801561010d57600080fd5b50610116610512565b604051610123919061095b565b60405180910390f35b34801561013857600080fd5b50610141610559565b60405161014e91906109b7565b60405180910390f35b61015f61057d565b005b34801561016d57600080fd5b506101766108f3565b604051610183919061095b565b60405180910390f35b34801561019857600080fd5b506101b360048036038101906101ae9190610a03565b6108f9565b6040516101c0919061095b565b60405180910390f35b3480156101d557600080fd5b506101de610911565b6040516101eb9190610a4b565b60405180910390f35b34801561020057600080fd5b5061021b60048036038101906102169190610a03565b610924565b604051610228919061095b565b60405180910390f35b34801561023d57600080fd5b5061024661093c565b604051610253919061095b565b60405180910390f35b6000600560003373ffffffffffffffffffffffffffffffffffffffff1673ffffffffffffffffffffffffffffffffffffffff16815260200190815260200160002054905090565b60045481565b600360009054906101000a900460ff16156102f9576040517f08c379a00000000000000000000000000000000000000000000000000000000081526004016102f090610ac3565b60405180910390fd5b60015434101561033e576040517f08c379a000000000000000000000000000000000000000000000000000000000815260040161033590610b55565b60405180910390fd5b6004544211610382576040517f08c379a000000000000000000000000000000000000000000000000000000000815260040161037990610be7565b60405180910390fd5b34600560008060009054906101000a900473ffffffffffffffffffffffffffffffffffffffff1673ffffffffffffffffffffffffffffffffffffffff1673ffffffffffffffffffffffffffffffffffffffff16815260200190815260200160002060008282546103f29190610c36565b92505081905550670de0b6b3a7640000341015610452576276a700426104189190610c36565b600481905550633b9aca006004546004346104339190610c6a565b61043d9190610c6a565b6104479190610cdb565b6002819055506104a7565b670de0b6b3a764000034106104a65762ed4e00426104709190610c36565b6004819055506305f5e10060045460093461048b9190610c6a565b6104959190610c6a565b61049f9190610cdb565b6002819055505b5b6001600360006101000a81548160ff0219169083151502179055503373ffffffffffffffffffffffffffffffffffffffff167f6ef95f06320e7a25a04a175ca677b7052bdd97131872c2192525a629f51be77034604051610508919061095b565b60405180910390a2565b6000600660003373ffffffffffffffffffffffffffffffffffffffff1673ffffffffffffffffffffffffffffffffffffffff16815260200190815260200160002054905090565b60008054906101000a900473ffffffffffffffffffffffffffffffffffffffff1681565b60008054906101000a900473ffffffffffffffffffffffffffffffffffffffff1673ffffffffffffffffffffffffffffffffffffffff163373ffffffffffffffffffffffffffffffffffffffff161461060b576040517f08c379a000000000000000000000000000000000000000000000000000000000815260040161060290610d7e565b60405180910390fd5b600360009054906101000a900460ff1661065a576040517f08c379a000000000000000000000000000000000000000000000000000000000815260040161065190610e10565b60405180910390fd5b600454421161069e576040517f08c379a000000000000000000000000000000000000000000000000000000000815260040161069590610ea2565b60405180910390fd5b6000600560008060009054906101000a900473ffffffffffffffffffffffffffffffffffffffff1673ffffffffffffffffffffffffffffffffffffffff1673ffffffffffffffffffffffffffffffffffffffff1681526020019081526020016000205403610741576040517f08c379a000000000000000000000000000000000000000000000000000000000815260040161073890610f34565b60405180910390fd5b6000600360006101000a81548160ff021916908315150217905550600254600660008060009054906101000a900473ffffffffffffffffffffffffffffffffffffffff1673ffffffffffffffffffffffffffffffffffffffff1673ffffffffffffffffffffffffffffffffffffffff16815260200190815260200160002060008282546107ce9190610c36565b9250508190555060008060009054906101000a900473ffffffffffffffffffffffffffffffffffffffff1673ffffffffffffffffffffffffffffffffffffffff164760405161081c90610f85565b60006040518083038185875af1925050503d8060008114610859576040519150601f19603f3d011682016040523d82523d6000602084013e61085e565b606091505b50509050806108a2576040517f08c379a00000000000000000000000000000000000000000000000000000000081526004016108999061100c565b60405180910390fd5b3373ffffffffffffffffffffffffffffffffffffffff167fd8138f8a3f377c5259ca548e70e4c2de94f129f5a11036a15b69513cba2b426a476040516108e8919061095b565b60405180910390a250565b60015481565b60056020528060005260406000206000915090505481565b600360009054906101000a900460ff1681565b60066020528060005260406000206000915090505481565b60025481565b6000819050919050565b61095581610942565b82525050565b6000602082019050610970600083018461094c565b92915050565b600073ffffffffffffffffffffffffffffffffffffffff82169050919050565b60006109a182610976565b9050919050565b6109b181610996565b82525050565b60006020820190506109cc60008301846109a8565b92915050565b600080fd5b6109e081610996565b81146109eb57600080fd5b50565b6000813590506109fd816109d7565b92915050565b600060208284031215610a1957610a186109d2565b5b6000610a27848285016109ee565b91505092915050565b60008115159050919050565b610a4581610a30565b82525050565b6000602082019050610a606000830184610a3c565b92915050565b600082825260208201905092915050565b7f596f752061726520616c726561647920696e73757265642e0000000000000000600082015250565b6000610aad601883610a66565b9150610ab882610a77565b602082019050919050565b60006020820190508181036000830152610adc81610aa0565b9050919050565b7f54686520616d6f756e742070726f7669646564206973206e6f742076616c696460008201527f2e00000000000000000000000000000000000000000000000000000000000000602082015250565b6000610b3f602183610a66565b9150610b4a82610ae3565b604082019050919050565b60006020820190508181036000830152610b6e81610b32565b9050919050565b7f596f752061726520756e61626c6520746f206d616b652061207061796d656e7460008201527f20617420746869732074696d652e000000000000000000000000000000000000602082015250565b6000610bd1602e83610a66565b9150610bdc82610b75565b604082019050919050565b60006020820190508181036000830152610c0081610bc4565b9050919050565b7f4e487b7100000000000000000000000000000000000000000000000000000000600052601160045260246000fd5b6000610c4182610942565b9150610c4c83610942565b9250828201905080821115610c6457610c63610c07565b5b92915050565b6000610c7582610942565b9150610c8083610942565b9250828202610c8e81610942565b91508282048414831517610ca557610ca4610c07565b5b5092915050565b7f4e487b7100000000000000000000000000000000000000000000000000000000600052601260045260246000fd5b6000610ce682610942565b9150610cf183610942565b925082610d0157610d00610cac565b5b828204905092915050565b7f5468697320616374696f6e2063616e206f6e6c7920626520706572666f726d6560008201527f6420627920746865206f776e6572206f662074686520636f6e74726163742e00602082015250565b6000610d68603f83610a66565b9150610d7382610d0c565b604082019050919050565b60006020820190508181036000830152610d9781610d5b565b9050919050565b7f596f7520646f206e6f74206861766520696e737572616e636520636f7665726160008201527f67652e0000000000000000000000000000000000000000000000000000000000602082015250565b6000610dfa602383610a66565b9150610e0582610d9e565b604082019050919050565b60006020820190508181036000830152610e2981610ded565b9050919050565b7f596f757220696e737572616e6365206973207374696c6c2076616c696420616e60008201527f6420686173206e6f7420657870697265642e0000000000000000000000000000602082015250565b6000610e8c603283610a66565b9150610e9782610e30565b604082019050919050565b60006020820190508181036000830152610ebb81610e7f565b9050919050565b7f54686520696e737572616e6365207061796d656e7420686173206e6f7420626560008201527f656e206d6164652e000000000000000000000000000000000000000000000000602082015250565b6000610f1e602883610a66565b9150610f2982610ec2565b604082019050919050565b60006020820190508181036000830152610f4d81610f11565b9050919050565b600081905092915050565b50565b6000610f6f600083610f54565b9150610f7a82610f5f565b600082019050919050565b6000610f9082610f62565b9150819050919050565b7f54686520617474656d707420746f2073656e642045746865722068617320666160008201527f696c65642e000000000000000000000000000000000000000000000000000000602082015250565b6000610ff6602583610a66565b915061100182610f9a565b604082019050919050565b6000602082019050818103600083015261102581610fe9565b905091905056fea264697066735822122064e380cdf81e507633c1ab97c9ff44b06a9524567c9506497356174a077ddd9664736f6c63430008130033608060405234801561001057600080fd5b50326000806101000a81548173ffffffffffffffffffffffffffffffffffffffff021916908373ffffffffffffffffffffffffffffffffffffffff160217905550611933806100606000396000f3fe6080604052600436106100745760003560e01c806398cd90b51161004e57806398cd90b5146100e0578063b0857bb414610109578063b5e2ebc614610113578063e6a641e9146101555761007b565b8063472eb03d146100805780638da5cb5b1461008a5780638e8cfbde146100b55761007b565b3661007b57005b600080fd5b610088610192565b005b34801561009657600080fd5b5061009f610505565b6040516100ac9190610f69565b60405180910390f35b3480156100c157600080fd5b506100ca610529565b6040516100d79190610f9d565b60405180910390f35b3480156100ec57600080fd5b5061010760048036038101906101029190610fe9565b61052f565b005b6101116109b4565b005b34801561011f57600080fd5b5061013a60048036038101906101359190611055565b610ec7565b60405161014c9695949392919061109d565b60405180910390f35b34801561016157600080fd5b5061017c60048036038101906101779190611055565b610f10565b6040516101899190610f9d565b60405180910390f35b6000600360008060009054906101000a900473ffffffffffffffffffffffffffffffffffffffff1673ffffffffffffffffffffffffffffffffffffffff1673ffffffffffffffffffffffffffffffffffffffff1681526020019081526020016000206003015411610238576040517f08c379a000000000000000000000000000000000000000000000000000000000815260040161022f90611181565b60405180910390fd5b600360008060009054906101000a900473ffffffffffffffffffffffffffffffffffffffff1673ffffffffffffffffffffffffffffffffffffffff1673ffffffffffffffffffffffffffffffffffffffff168152602001908152602001600020600301543410156102de576040517f08c379a00000000000000000000000000000000000000000000000000000000081526004016102d590611213565b60405180910390fd5b600360008060009054906101000a900473ffffffffffffffffffffffffffffffffffffffff1673ffffffffffffffffffffffffffffffffffffffff1673ffffffffffffffffffffffffffffffffffffffff16815260200190815260200160002060050160009054906101000a900460ff161561038f576040517f08c379a0000000000000000000000000000000000000000000000000000000008152600401610386906112a5565b60405180910390fd5b3073ffffffffffffffffffffffffffffffffffffffff166108fc349081150290604051600060405180830381858888f193505050501580156103d5573d6000803e3d6000fd5b5034600360008060009054906101000a900473ffffffffffffffffffffffffffffffffffffffff1673ffffffffffffffffffffffffffffffffffffffff1673ffffffffffffffffffffffffffffffffffffffff168152602001908152602001600020600301600082825461044991906112f4565b925050819055506000600260003373ffffffffffffffffffffffffffffffffffffffff1673ffffffffffffffffffffffffffffffffffffffff1681526020019081526020016000208190555060008054906101000a900473ffffffffffffffffffffffffffffffffffffffff1673ffffffffffffffffffffffffffffffffffffffff167f3db642b80902afb8ef23a2aeab4800b4b3717feb180705cf0a1c273ccc591c97346040516104fb9190610f9d565b60405180910390a2565b60008054906101000a900473ffffffffffffffffffffffffffffffffffffffff1681565b60015481565b60008054906101000a900473ffffffffffffffffffffffffffffffffffffffff1673ffffffffffffffffffffffffffffffffffffffff163373ffffffffffffffffffffffffffffffffffffffff16146105bd576040517f08c379a00000000000000000000000000000000000000000000000000000000081526004016105b49061139a565b60405180910390fd5b60008211610600576040517f08c379a00000000000000000000000000000000000000000000000000000000081526004016105f79061142c565b60405180910390fd5b60008111610643576040517f08c379a000000000000000000000000000000000000000000000000000000000815260040161063a906114be565b60405180910390fd5b6000600360003373ffffffffffffffffffffffffffffffffffffffff1673ffffffffffffffffffffffffffffffffffffffff16815260200190815260200160002060000154146106c8576040517f08c379a00000000000000000000000000000000000000000000000000000000081526004016106bf90611550565b60405180910390fd5b670de0b6b3a76400008211156107f4576040518060c0016040528083815260200182815260200162ed4e00426106fe9190611570565b8152602001606460148561071291906115a4565b61071c9190611615565b846107279190611570565b81526020016000815260200160001515815250600360008060009054906101000a900473ffffffffffffffffffffffffffffffffffffffff1673ffffffffffffffffffffffffffffffffffffffff1673ffffffffffffffffffffffffffffffffffffffff168152602001908152602001600020600082015181600001556020820151816001015560408201518160020155606082015181600301556080820151816004015560a08201518160050160006101000a81548160ff02191690831515021790555090505061091c565b670de0b6b3a7640000821161091b576040518060c001604052808381526020018281526020016276a700426108299190611570565b81526020016064600a8561083d91906115a4565b6108479190611615565b846108529190611570565b81526020016000815260200160001515815250600360008060009054906101000a900473ffffffffffffffffffffffffffffffffffffffff1673ffffffffffffffffffffffffffffffffffffffff1673ffffffffffffffffffffffffffffffffffffffff168152602001908152602001600020600082015181600001556020820151816001015560408201518160020155606082015181600301556080820151816004015560a08201518160050160006101000a81548160ff0219169083151502179055509050505b5b80600260003373ffffffffffffffffffffffffffffffffffffffff1673ffffffffffffffffffffffffffffffffffffffff168152602001908152602001600020819055503373ffffffffffffffffffffffffffffffffffffffff167f58d170de3a12438e22d81380f353b2fcac86f0a708a1374deaa5c6322a95992f83836040516109a8929190611646565b60405180910390a25050565b6000600260008060009054906101000a900473ffffffffffffffffffffffffffffffffffffffff1673ffffffffffffffffffffffffffffffffffffffff1673ffffffffffffffffffffffffffffffffffffffff1681526020019081526020016000205403610a57576040517f08c379a0000000000000000000000000000000000000000000000000000000008152600401610a4e906116e1565b60405180910390fd5b6000600360008060009054906101000a900473ffffffffffffffffffffffffffffffffffffffff1673ffffffffffffffffffffffffffffffffffffffff1673ffffffffffffffffffffffffffffffffffffffff1681526020019081526020016000206004015414610afd576040517f08c379a0000000000000000000000000000000000000000000000000000000008152600401610af490611773565b60405180910390fd5b600360008060009054906101000a900473ffffffffffffffffffffffffffffffffffffffff1673ffffffffffffffffffffffffffffffffffffffff1673ffffffffffffffffffffffffffffffffffffffff16815260200190815260200160002060000154600360008060009054906101000a900473ffffffffffffffffffffffffffffffffffffffff1673ffffffffffffffffffffffffffffffffffffffff1673ffffffffffffffffffffffffffffffffffffffff168152602001908152602001600020600101541015610c06576040517f08c379a0000000000000000000000000000000000000000000000000000000008152600401610bfd90611805565b60405180910390fd5b600360008060009054906101000a900473ffffffffffffffffffffffffffffffffffffffff1673ffffffffffffffffffffffffffffffffffffffff1673ffffffffffffffffffffffffffffffffffffffff16815260200190815260200160002060050160009054906101000a900460ff1615610cb7576040517f08c379a0000000000000000000000000000000000000000000000000000000008152600401610cae906112a5565b60405180910390fd5b60008060009054906101000a900473ffffffffffffffffffffffffffffffffffffffff1673ffffffffffffffffffffffffffffffffffffffff16600360008060009054906101000a900473ffffffffffffffffffffffffffffffffffffffff1673ffffffffffffffffffffffffffffffffffffffff1673ffffffffffffffffffffffffffffffffffffffff16815260200190815260200160002060000154604051610d6190611856565b60006040518083038185875af1925050503d8060008114610d9e576040519150601f19603f3d011682016040523d82523d6000602084013e610da3565b606091505b5050905080610de7576040517f08c379a0000000000000000000000000000000000000000000000000000000008152600401610dde906118dd565b60405180910390fd5b600360008060009054906101000a900473ffffffffffffffffffffffffffffffffffffffff1673ffffffffffffffffffffffffffffffffffffffff1673ffffffffffffffffffffffffffffffffffffffff16815260200190815260200160002060000154600360008060009054906101000a900473ffffffffffffffffffffffffffffffffffffffff1673ffffffffffffffffffffffffffffffffffffffff1673ffffffffffffffffffffffffffffffffffffffff1681526020019081526020016000206004016000828254610ebd9190611570565b9250508190555050565b60036020528060005260406000206000915090508060000154908060010154908060020154908060030154908060040154908060050160009054906101000a900460ff16905086565b60026020528060005260406000206000915090505481565b600073ffffffffffffffffffffffffffffffffffffffff82169050919050565b6000610f5382610f28565b9050919050565b610f6381610f48565b82525050565b6000602082019050610f7e6000830184610f5a565b92915050565b6000819050919050565b610f9781610f84565b82525050565b6000602082019050610fb26000830184610f8e565b92915050565b600080fd5b610fc681610f84565b8114610fd157600080fd5b50565b600081359050610fe381610fbd565b92915050565b6000806040838503121561100057610fff610fb8565b5b600061100e85828601610fd4565b925050602061101f85828601610fd4565b9150509250929050565b61103281610f48565b811461103d57600080fd5b50565b60008135905061104f81611029565b92915050565b60006020828403121561106b5761106a610fb8565b5b600061107984828501611040565b91505092915050565b60008115159050919050565b61109781611082565b82525050565b600060c0820190506110b26000830189610f8e565b6110bf6020830188610f8e565b6110cc6040830187610f8e565b6110d96060830186610f8e565b6110e66080830185610f8e565b6110f360a083018461108e565b979650505050505050565b600082825260208201905092915050565b7f5468657265206973206e6f206c6f616e20617661696c61626c6520746f20626560008201527f20706169642e0000000000000000000000000000000000000000000000000000602082015250565b600061116b6026836110fe565b91506111768261110f565b604082019050919050565b6000602082019050818103600083015261119a8161115e565b9050919050565b7f5468652070726f766964656420616d6f756e74206973206e6f7420737566666960008201527f6369656e742e0000000000000000000000000000000000000000000000000000602082015250565b60006111fd6026836110fe565b9150611208826111a1565b604082019050919050565b6000602082019050818103600083015261122c816111f0565b9050919050565b7f546865206c6f616e20686173206e6f74206265656e2070616964206f7574207960008201527f65742e0000000000000000000000000000000000000000000000000000000000602082015250565b600061128f6023836110fe565b915061129a82611233565b604082019050919050565b600060208201905081810360008301526112be81611282565b9050919050565b7f4e487b7100000000000000000000000000000000000000000000000000000000600052601160045260246000fd5b60006112ff82610f84565b915061130a83610f84565b9250828203905081811115611322576113216112c5565b5b92915050565b7f5468697320616374696f6e2063616e206f6e6c7920626520706572666f726d6560008201527f6420627920746865206f776e6572206f662074686520636f6e74726163742e00602082015250565b6000611384603f836110fe565b915061138f82611328565b604082019050919050565b600060208201905081810360008301526113b381611377565b9050919050565b7f546865206c6f616e20616d6f756e742073686f756c642062652068696768657260008201527f207468616e207a65726f2e000000000000000000000000000000000000000000602082015250565b6000611416602b836110fe565b9150611421826113ba565b604082019050919050565b6000602082019050818103600083015261144581611409565b9050919050565b7f54686520636f6c6c61746572616c20616d6f756e74206e6565647320746f206560008201527f7863656564207a65726f2e000000000000000000000000000000000000000000602082015250565b60006114a8602b836110fe565b91506114b38261144c565b604082019050919050565b600060208201905081810360008301526114d78161149b565b9050919050565b7f41206c6f616e2077697468207468652073616d652064657461696c7320616c7260008201527f65616479206578697374732e0000000000000000000000000000000000000000602082015250565b600061153a602c836110fe565b9150611545826114de565b604082019050919050565b600060208201905081810360008301526115698161152d565b9050919050565b600061157b82610f84565b915061158683610f84565b925082820190508082111561159e5761159d6112c5565b5b92915050565b60006115af82610f84565b91506115ba83610f84565b92508282026115c881610f84565b915082820484148315176115df576115de6112c5565b5b5092915050565b7f4e487b7100000000000000000000000000000000000000000000000000000000600052601260045260246000fd5b600061162082610f84565b915061162b83610f84565b92508261163b5761163a6115e6565b5b828204905092915050565b600060408201905061165b6000830185610f8e565b6116686020830184610f8e565b9392505050565b7f5468657265206973206e6f20636f6c6c61746572616c206173736f636961746560008201527f64207769746820796f7572206163636f756e742e000000000000000000000000602082015250565b60006116cb6034836110fe565b91506116d68261166f565b604082019050919050565b600060208201905081810360008301526116fa816116be565b9050919050565b7f5468652062616c616e636520696e20796f75722077616c6c6574206d7573742060008201527f6265207a65726f2e000000000000000000000000000000000000000000000000602082015250565b600061175d6028836110fe565b915061176882611701565b604082019050919050565b6000602082019050818103600083015261178c81611750565b9050919050565b7f54686520616d6f756e74206f6620636f6c6c61746572616c20796f752068617660008201527f6520697320696e73756666696369656e742e0000000000000000000000000000602082015250565b60006117ef6032836110fe565b91506117fa82611793565b604082019050919050565b6000602082019050818103600083015261181e816117e2565b9050919050565b600081905092915050565b50565b6000611840600083611825565b915061184b82611830565b600082019050919050565b600061186182611833565b9150819050919050565b7f54686520617474656d707420746f2073656e642045746865722068617320666160008201527f696c65642e000000000000000000000000000000000000000000000000000000602082015250565b60006118c76025836110fe565b91506118d28261186b565b604082019050919050565b600060208201905081810360008301526118f6816118ba565b905091905056fea26469706673582212204c669a392621b74e21f4eb8627c91c9d8aea08a2d106ac7fe6dd559fd8c6b64064736f6c63430008130033a2646970667358221220f8d9f8c003e80c8b29474a3898ac2cc0d5bd29495a41268643a5e157ad6750c964736f6c63430008130033",
  "linkReferences": {},
  "deployedLinkReferences": {}
}